:020000040000FA
:0600000000F00FEF09F013
:1006000000456E7472792047617465204F70656E85
:1006100000456E7465722050617373776F72640069
:10062000457869742047617465204F70656E00538A
:10063000616E6473205061726B696E6700456E7401
:100640006572205553455200456D657267656E634E
:1006500079004C6F742046756C6C0057524F4E47B2
:07066000005041535300005C
:10066800FFFF1CEC09F0110E156E060E166E9AECC3
:1006780008F0010E166E000E55EC08F0D8EC08F0E4
:100688000E6E0E5001EC09F0020E166E000E55ECBF
:1006980008F0D8EC08F00D6E0D5001EC09F0030ECF
:1006A800166E000E55EC08F0D8EC08F00C6E0C50E5
:1006B80001EC09F0040E166E000E55EC08F0D8ECAB
:1006C80008F00B6E0B5001EC09F0050E166E000ECB
:1006D80055EC08F0D8EC08F00A6E0A5001EC09F065
:1006E800D8EC08F0096E05040610D8A47EEF03F0D4
:1006F80081EF03F0FFFFFFEF03F0FFFF330E0E184B
:10070800D8A489EF03F08CEF03F0FFFFFFEF03F0AD
:10071800FFFF330E0D18D8A494EF03F097EF03F002
:10072800FFFFFFEF03F0FFFF360E0C18D8A49FEF72
:1007380003F0A2EF03F0FFFFFFEF03F0FFFF360E19
:100748000B18D8A4AAEF03F0ADEF03F0FFFFFFEFFB
:1007580003F0FFFF350E0A18D8A4B5EF03F0B8EF81
:1007680003F0FFFFFFEF03F0FFFF230E0918D8A4E3
:10077800C0EF03F0C3EF03F0FFFFFFEF03F0FFFF4D
:100788001CEC09F0610E156E060E166E9AEC08F058
:10079800080E1D6E9E0E1C6E4C0EFFFFE82EFDD738
:1007A8001C2EFBD71D2EF9D78080080E1D6E9E0EBD
:1007B8001C6E4C0EFFFFE82EFDD71C2EFBD71D2EFE
:1007C800F9D71CEC09F0010E156E060E166E9AECA0
:1007D80008F0FFFF080E1D6E9E0E1C6E4C0EFFFFEC
:1007E800E82EFDD71C2EFBD71D2EF9D78090074A7F
:1007F800082A06EF05F0FFFF03040410D8A407EF4A
:1008080004F00AEF04F0FFFF78EF04F0FFFF380E62
:100818000E18D8A412EF04F015EF04F0FFFF78EFDC
:1008280004F0FFFF330E0D18D8A41DEF04F020EFDD
:1008380004F0FFFF78EF04F0FFFF360E0C18D8A481
:1008480028EF04F02BEF04F0FFFF78EF04F0FFFF30
:10085800380E0B18D8A433EF04F036EF04F0FFFF7E
:1008680078EF04F0FFFF300E0A18D8A43EEF04F02A
:1008780041EF04F0FFFF78EF04F0FFFF230E0918A3
:10088800D8A449EF04F04CEF04F0FFFF78EF04F030
:10089800FFFF1CEC09F0610E156E060E166E9AEC41
:1008A80008F0080E1D6E9E0E1C6E4C0EFFFFE82E03
:1008B800FDD71C2EFBD71D2EF9D78080080E1D6E84
:1008C8009E0E1C6E4C0EFFFFE82EFDD71C2EFBD78C
:1008D8001D2EF9D71CEC09F0010E156E060E166ECA
:1008E8009AEC08F0EDEF03F0FFFF01040210D8A422
:1008F80080EF04F083EF04F0FFFFF1EF04F0FFFF57
:10090800320E0E18D8A48BEF04F08EEF04F0FFFF20
:10091800F1EF04F0FFFF320E0D18D8A496EF04F0A3
:1009280099EF04F0FFFFF1EF04F0FFFF380E0C1809
:10093800D8A4A1EF04F0A4EF04F0FFFFF1EF04F056
:10094800FFFF380E0B18D8A4ACEF04F0AFEF04F09B
:10095800FFFFF1EF04F0FFFF390E0A18D8A4B7EF34
:1009680004F0BAEF04F0FFFFF1EF04F0FFFF230EED
:100978000918D8A4C2EF04F0C5EF04F0FFFFF1EFA7
:1009880004F0FFFF1CEC09F0610E156E060E166EE2
:100998009AEC08F0080E1D6E9E0E1C6E4C0EFFFFA2
:1009A800E82EFDD71C2EFBD71D2EF9D78080080E08
:1009B8001D6E9E0E1C6E4C0EFFFFE82EFDD71C2EE2
:1009C800FBD71D2EF9D71CEC09F0010E156E060E8B
:1009D800166E9AEC08F0EDEF03F0FFFF1CEC09F03F
:1009E8005B0E156E060E166E9AEC08F0080E1D6E5C
:1009F8009E0E1C6E4C0EFFFFE82EFDD71C2EFBD75B
:100A08001D2EF9D7FFFF1200FFFFFFFF82908282A1
:100A18008284828682B813EF05F016EF05F0FFFF97
:100A28002DEF05F0FFFF620E146E760EFFFFE82E25
:100A3800FDD7142EFBD700D0FFFF82A826EF05F0C4
:100A480029EF05F0FFFF20EF05F0FFFF2A0E9BEFCF
:100A580006F0FFFF82BA33EF05F036EF05F0FFFF2F
:100A68004DEF05F0FFFF620E146E760EFFFFE82EC5
:100A7800FDD7142EFBD700D0FFFF82AA46EF05F062
:100A880049EF05F0FFFF40EF05F0FFFF320E9BEF47
:100A980006F0FFFF82BC53EF05F056EF05F0FFFFAD
:100AA8006DEF05F0FFFF620E146E760EFFFFE82E65
:100AB800FDD7142EFBD700D0FFFF82AC66EF05F000
:100AC80069EF05F0FFFF60EF05F0FFFF330E9BEFC6
:100AD80006F0FFFF828082928284828682B877EF56
:100AE80005F07AEF05F0FFFF91EF05F0FFFF620ECA
:100AF800146E760EFFFFE82EFDD7142EFBD700D01C
:100B0800FFFF82A88AEF05F08DEF05F0FFFF84EF65
:100B180005F0FFFF310E9BEF06F0FFFF82BA97EF5B
:100B280005F09AEF05F0FFFFB1EF05F0FFFF620E49
:100B3800146E760EFFFFE82EFDD7142EFBD700D0DB
:100B4800FFFF82AAAAEF05F0ADEF05F0FFFFA4EFC3
:100B580005F0FFFF350E9BEF06F0FFFF82BCB7EFF5
:100B680005F0BAEF05F0FFFFD1EF05F0FFFF620EC9
:100B7800146E760EFFFFE82EFDD7142EFBD700D09B
:100B8800FFFF82ACCAEF05F0CDEF05F0FFFFC4EF21
:100B980005F0FFFF360E9BEF06F0FFFF8280828292
:100BA8008294828682B8DBEF05F0DEEF05F0FFFF66
:100BB800F5EF05F0FFFF620E146E760EFFFFE82ECC
:100BC800FDD7142EFBD700D0FFFF82A8EEEF05F06B
:100BD800F1EF05F0FFFFE8EF05F0FFFF340E9BEFA4
:100BE80006F0FFFF82BAFBEF05F0FEEF05F0FFFF0E
:100BF80015EF06F0FFFF620E146E760EFFFFE82E6B
:100C0800FDD7142EFBD700D0FFFF82AA0EEF06F007
:100C180011EF06F0FFFF08EF06F0FFFF380E9BEF1D
:100C280006F0FFFF82BC1BEF06F01EEF06F0FFFF89
:100C380035EF06F0FFFF620E146E760EFFFFE82E0A
:100C4800FDD7142EFBD700D0FFFF82AC2EEF06F0A5
:100C580031EF06F0FFFF28EF06F0FFFF390E9BEF9C
:100C680006F0FFFF828082828284829682B83FEFFC
:100C780006F042EF06F0FFFF59EF06F0FFFF620EA5
:100C8800146E760EFFFFE82EFDD7142EFBD700D08A
:100C9800FFFF82A852EF06F055EF06F0FFFF4CEF7A
:100CA80006F0FFFF370E9BEF06F0FFFF82BA5FEFFB
:100CB80006F062EF06F0FFFF79EF06F0FFFF620E25
:100CC800146E760EFFFFE82EFDD7142EFBD700D04A
:100CD800FFFF82AA72EF06F075EF06F0FFFF6CEFD8
:100CE80006F0FFFF300E9BEF06F0FFFF82BC7FEFA0
:100CF80006F082EF06F0FFFF99EF06F0FFFF620EA5
:100D0800146E760EFFFFE82EFDD7142EFBD700D009
:100D1800FFFF82AC92EF06F095EF06F0FFFF8CEF35
:100D280006F0FFFF230E9BEF06F0FFFF6E0EFFFF9E
:100D38001200FFFFFFFF1CEC09F03D0E156E060EBA
:100D4800166E9AEC08F0010E166E000E55EC08F0BF
:100D5800D8EC08F0126E125001EC09F0020E166E73
:100D6800000E55EC08F0D8EC08F0116E115001ECAB
:100D780009F0030E166E000E55EC08F0D8EC08F0DA
:100D8800106E105001EC09F0D8EC08F00F6E300E20
:100D98001218D8A4D2EF06F0D5EF06F0FFFF12EF35
:100DA80007F0FFFF330E1118D8A4DDEF06F0E0EFCF
:100DB80006F0FFFF12EF07F0FFFF320E1018D8A45D
:100DC800E8EF06F0EBEF06F0FFFF12EF07F0FFFF8A
:100DD800230E0F18D8A4F3EF06F0F6EF06F0FFFF86
:100DE80012EF07F0FFFF1CEC09F0610E156E060EFE
:100DF800166E9AEC08F0000E066E010E056EFFFFE7
:100E0800080E1D6E9E0E1C6E4C0EFFFFE82EFDD7C1
:100E18001C2EFBD71D2EF9D793EF07F0FFFF360ED8
:100E28001218D8A41AEF07F01DEF07F0FFFF4DEFD7
:100E380007F0FFFF380E1118D8A425EF07F028EFA8
:100E480007F0FFFF4DEF07F0FFFF330E1018D8A48F
:100E580030EF07F033EF07F0FFFF4DEF07F0FFFF2C
:100E6800230E0F18D8A43BEF07F03EEF07F0FFFF63
:100E78004DEF07F0FFFF1CEC09F0610E156E060E32
:100E8800166E9AEC08F0000E046E010E036E03EF66
:100E980007F0FFFF320E1218D8A455EF07F058EFED
:100EA80007F0FFFF88EF07F0FFFF330E1118D8A4F3
:100EB80060EF07F063EF07F0FFFF88EF07F0FFFF31
:100EC800320E1018D8A46BEF07F06EEF07F0FFFF93
:100ED80088EF07F0FFFF230E0F18D8A476EF07F06E
:100EE80079EF07F0FFFF88EF07F0FFFF1CEC09F030
:100EF800610E156E060E166E9AEC08F0000E026E64
:100F0800010E016E03EF07F0FFFF1CEC09F05B0E0A
:100F1800156E060E166E9AEC08F003EF07F0FFFF49
:100F28001200FFFFFFFF720ED36E25EC09F0BDEC37
:100F380008F0000E926E2F0E156E060E166E9AECC5
:100F480008F0100E1F6E3B0E1E6E990EFFFFE82E66
:100F5800FDD71E2EFBD71F2EF9D700D01CEC09F0A9
:100F6800FFFFBDEC08F083A4BCEF07F0BFEF07F06C
:100F7800FFFFF1EF07F0FFFF0A0E07180810D8A4CB
:100F8800C8EF07F0CBEF07F0FFFFE0EF07F0FFFF38
:100F9800520E156E060E166E9AEC08F0080E1F6EAD
:100FA8009E0E1E6E4C0EFFFFE82EFDD71E2EFBD7A1
:100FB8001F2EF9D7F1EF07F0FFFF9EEC06F0080EA1
:100FC8001F6E9E0E1E6E4C0EFFFFE82EFDD71E2EC6
:100FD800FBD71F2EF9D734EC03F0FFFF83A6F7EFFA
:100FE80007F0FAEF07F0FFFF12EF08F0FFFF200EFF
:100FF800156E060E166E9AEC08F08082080E1F6EAB
:101008009E0E1E6E4C0EFFFFE82EFDD71E2EFBD740
:101018001F2EF9D70706D8A008068092FFFF83A8DD
:1010280018EF08F01BEF08F0FFFFB4EF07F0FFFF21
:101038008082480E156E060E166E9AEC08F0000EA9
:10104800216E000E206EFFFF8084930E1E6E320EFE
:10105800FFFFE82EFDD71E2EFBD78094930E1E6E41
:10106800320EFFFFE82EFDD71E2EFBD7204A212A7D
:1010780021BE48EF08F021500AE10A0E205CD8A0F2
:1010880048EF08F04BEF08F0FFFF27EF08F0FFFFED
:101098008092000E086E000E076EB4EF07F001EFA5
:1010A80000F0FFFF1B6E020E16605DEF08F060EFA8
:1010B80008F0FFFF97EF08F0FFFF0F0E1B6467EFC4
:1010C80008F06AEF08F0FFFF6DEF08F0FFFF97EFF9
:1010D80008F0FFFF1604D8B474EF08F077EF08F0B3
:1010E800FFFF82EF08F0FFFF800E1BC017F0186AA1
:1010F8001710196E18501A6E8BEF08F0FFFFC00E0C
:101108001BC017F0186A1710196E18501A6EFFFFD7
:101118001950F0EC08F0050E176EDF0EFFFFE82EF1
:10112800FDD7172EFBD7FFFF1200FFFFFFFFA9EF28
:1011380008F0FFFF15C0F6FF16C0F7FF0800FFFF15
:10114800F55001EC09F0154A162AFFFF15C0F6FF05
:1011580016C0F7FF0800FFFFF5500009D8A4B7EF45
:1011680008F0BAEF08F0FFFF9DEF08F0FFFF12004C
:10117800FFFFFFFF0F0E166E9E0EFFFFE82EFDD736
:10118800162EFBD7000E936EFC0E956E380EF0EC03
:1011980008F0010EF0EC08F00C0EF0EC08F0060E6A
:1011A800F0EC08F01200FFFFFFFF6E0E156EE1EF86
:1011B80008F0FFFF09EC05F0156EFFFF6E0E15181D
:1011C800D8B4E9EF08F0ECEF08F0FFFFDDEF08F026
:1011D800FFFF15501200FFFFFFFF156E15C08AFFB5
:1011E8008C908C828C92030E146EEC0EFFFFE82E0E
:1011F800FDD7142EFBD71200FFFFFFFF146E14C09B
:101208008AFF8C808C828C92C80EFFFF00F0E82E3B
:10121800FCD71200FFFF00EE01F0130EEE6AE8069D
:10122800FDE1000EF86E060EF76E000196EF07F06E
:10123800FFFF010EF0EC08F0800EF0EC08F0120051
:0E124800FFFFFFFFF00E946E1200FFFFFFFF8E
:020000040020DA
:08000000FFFFFFFFFFFFFFFF00
:020000040030CA
:0E000000FF270F0EFF0185FF0FC00FE00F401E
:00000001FF
